{
  "_format": "hh-sol-artifact-1",
  "contractName": "NFTMarketplace",
  "sourceName": "contracts/PokeMarketplace.sol",
  "abi": [
    {
      "inputs": [
        {
          "internalType": "address",
          "name": "_nftContractAddress",
          "type": "address"
        },
        {
          "internalType": "address",
          "name": "_tokenDigitalAddress",
          "type": "address"
        }
      ],
      "stateMutability": "nonpayable",
      "type": "constructor"
    },
    {
      "anonymous": false,
      "inputs": [
        {
          "indexed": true,
          "internalType": "address",
          "name": "previousOwner",
          "type": "address"
        },
        {
          "indexed": true,
          "internalType": "address",
          "name": "newOwner",
          "type": "address"
        }
      ],
      "name": "OwnershipTransferred",
      "type": "event"
    },
    {
      "inputs": [
        {
          "internalType": "uint256",
          "name": "tokenId",
          "type": "uint256"
        }
      ],
      "name": "buyListing",
      "outputs": [],
      "stateMutability": "nonpayable",
      "type": "function"
    },
    {
      "inputs": [
        {
          "internalType": "uint256",
          "name": "tokenId",
          "type": "uint256"
        }
      ],
      "name": "cancelListing",
      "outputs": [],
      "stateMutability": "nonpayable",
      "type": "function"
    },
    {
      "inputs": [
        {
          "internalType": "uint256",
          "name": "tokenId",
          "type": "uint256"
        },
        {
          "internalType": "uint256",
          "name": "price",
          "type": "uint256"
        }
      ],
      "name": "createListing",
      "outputs": [],
      "stateMutability": "nonpayable",
      "type": "function"
    },
    {
      "inputs": [],
      "name": "getListing",
      "outputs": [
        {
          "components": [
            {
              "internalType": "address",
              "name": "seller",
              "type": "address"
            },
            {
              "internalType": "uint256",
              "name": "tokenId",
              "type": "uint256"
            },
            {
              "internalType": "uint256",
              "name": "price",
              "type": "uint256"
            },
            {
              "internalType": "bool",
              "name": "isSold",
              "type": "bool"
            }
          ],
          "internalType": "struct NFTMarketplace.NFTListing[]",
          "name": "",
          "type": "tuple[]"
        }
      ],
      "stateMutability": "view",
      "type": "function"
    },
    {
      "inputs": [
        {
          "internalType": "uint256",
          "name": "",
          "type": "uint256"
        }
      ],
      "name": "listings",
      "outputs": [
        {
          "internalType": "address",
          "name": "seller",
          "type": "address"
        },
        {
          "internalType": "uint256",
          "name": "tokenId",
          "type": "uint256"
        },
        {
          "internalType": "uint256",
          "name": "price",
          "type": "uint256"
        },
        {
          "internalType": "bool",
          "name": "isSold",
          "type": "bool"
        }
      ],
      "stateMutability": "view",
      "type": "function"
    },
    {
      "inputs": [],
      "name": "nft",
      "outputs": [
        {
          "internalType": "contract IPokeNFT",
          "name": "",
          "type": "address"
        }
      ],
      "stateMutability": "view",
      "type": "function"
    },
    {
      "inputs": [],
      "name": "owner",
      "outputs": [
        {
          "internalType": "address",
          "name": "",
          "type": "address"
        }
      ],
      "stateMutability": "view",
      "type": "function"
    },
    {
      "inputs": [],
      "name": "renounceOwnership",
      "outputs": [],
      "stateMutability": "nonpayable",
      "type": "function"
    },
    {
      "inputs": [],
      "name": "token",
      "outputs": [
        {
          "internalType": "contract IPokeToken",
          "name": "",
          "type": "address"
        }
      ],
      "stateMutability": "view",
      "type": "function"
    },
    {
      "inputs": [
        {
          "internalType": "address",
          "name": "newOwner",
          "type": "address"
        }
      ],
      "name": "transferOwnership",
      "outputs": [],
      "stateMutability": "nonpayable",
      "type": "function"
    },
    {
      "inputs": [],
      "name": "withdrawToken",
      "outputs": [],
      "stateMutability": "nonpayable",
      "type": "function"
    }
  ],
  "bytecode": "0x60806040523480156200001157600080fd5b506040516200186438038062001864833981810160405281019062000037919062000217565b620000576200004b620000e160201b60201c565b620000e960201b60201c565b81600160006101000a81548173ffffffffffffffffffffffffffffffffffffffff021916908373ffffffffffffffffffffffffffffffffffffffff16021790555080600260006101000a81548173ffffffffffffffffffffffffffffffffffffffff021916908373ffffffffffffffffffffffffffffffffffffffff16021790555050506200025e565b600033905090565b60008060009054906101000a900473ffffffffffffffffffffffffffffffffffffffff169050816000806101000a81548173ffffffffffffffffffffffffffffffffffffffff021916908373ffffffffffffffffffffffffffffffffffffffff1602179055508173ffffffffffffffffffffffffffffffffffffffff168173ffffffffffffffffffffffffffffffffffffffff167f8be0079c531659141344cd1fd0a4f28419497f9722a3daafe3b4186f6b6457e060405160405180910390a35050565b600080fd5b600073ffffffffffffffffffffffffffffffffffffffff82169050919050565b6000620001df82620001b2565b9050919050565b620001f181620001d2565b8114620001fd57600080fd5b50565b6000815190506200021181620001e6565b92915050565b60008060408385031215620002315762000230620001ad565b5b6000620002418582860162000200565b9250506020620002548582860162000200565b9150509250929050565b6115f6806200026e6000396000f3fe608060405234801561001057600080fd5b50600436106100a95760003560e01c8063a79123a911610071578063a79123a91461012c578063ca628c7814610148578063de74e57b14610152578063e0a41cf214610185578063f2fde38b146101a3578063fc0c546a146101bf576100a9565b8063305a67a8146100ae57806347ccca02146100ca5780634884f459146100e8578063715018a6146101045780638da5cb5b1461010e575b600080fd5b6100c860048036038101906100c39190610e51565b6101dd565b005b6100d26103a3565b6040516100df9190610efd565b60405180910390f35b61010260048036038101906100fd9190610e51565b6103c9565b005b61010c61064c565b005b610116610660565b6040516101239190610f39565b60405180910390f35b61014660048036038101906101419190610f54565b610689565b005b6101506109e2565b005b61016c60048036038101906101679190610e51565b610ad2565b60405161017c9493929190610fbe565b60405180910390f35b61018d610b3f565b60405161019a9190611134565b60405180910390f35b6101bd60048036038101906101b89190611182565b610c23565b005b6101c7610ca6565b6040516101d491906111d0565b60405180910390f35b6000600460008381526020019081526020016000206040518060800160405290816000820160009054906101000a900473ffffffffffffffffffffffffffffffffffffffff1673ffffffffffffffffffffffffffffffffffffffff1673ffffffffffffffffffffffffffffffffffffffff16815260200160018201548152602001600282015481526020016003820160009054906101000a900460ff161515151581525050905060008160400151116102cb576040517f08c379a00000000000000000000000000000000000000000000000000000000081526004016102c290611248565b60405180910390fd5b60006040518060800160405280600073ffffffffffffffffffffffffffffffffffffffff1681526020016000815260200160008152602001600015158152509050806004600085815260200190815260200160002060008201518160000160006101000a81548173ffffffffffffffffffffffffffffffffffffffff021916908373ffffffffffffffffffffffffffffffffffffffff160217905550602082015181600101556040820151816002015560608201518160030160006101000a81548160ff021916908315150217905550905050505050565b600160009054906101000a900473ffffffffffffffffffffffffffffffffffffffff1681565b6000600460008381526020019081526020016000206040518060800160405290816000820160009054906101000a900473ffffffffffffffffffffffffffffffffffffffff1673ffffffffffffffffffffffffffffffffffffffff1673ffffffffffffffffffffffffffffffffffffffff16815260200160018201548152602001600282015481526020016003820160009054906101000a900460ff161515151581525050905060008160400151116104b7576040517f08c379a00000000000000000000000000000000000000000000000000000000081526004016104ae90611248565b60405180910390fd5b600260009054906101000a900473ffffffffffffffffffffffffffffffffffffffff1673ffffffffffffffffffffffffffffffffffffffff1663a9059cbb826000015183604001516040518363ffffffff1660e01b815260040161051c929190611268565b6020604051808303816000875af115801561053b573d6000803e3d6000fd5b505050506040513d601f19601f8201168201806040525081019061055f91906112bd565b61059e576040517f08c379a000000000000000000000000000000000000000000000000000000000815260040161059590611336565b60405180910390fd5b6001816060019015159081151581525050600160009054906101000a900473ffffffffffffffffffffffffffffffffffffffff1673ffffffffffffffffffffffffffffffffffffffff166323b872dd82600001513384602001516040518463ffffffff1660e01b815260040161061693929190611356565b600060405180830381600087803b15801561063057600080fd5b505af1158015610644573d6000803e3d6000fd5b505050505050565b610654610ccc565b61065e6000610d4a565b565b60008060009054906101000a900473ffffffffffffffffffffffffffffffffffffffff16905090565b3373ffffffffffffffffffffffffffffffffffffffff16600160009054906101000a900473ffffffffffffffffffffffffffffffffffffffff1673ffffffffffffffffffffffffffffffffffffffff16636352211e846040518263ffffffff1660e01b81526004016106fb919061138d565b602060405180830381865afa158015610718573d6000803e3d6000fd5b505050506040513d601f19601f8201168201806040525081019061073c91906113bd565b73ffffffffffffffffffffffffffffffffffffffff1614610792576040517f08c379a000000000000000000000000000000000000000000000000000000000815260040161078990611436565b60405180910390fd5b600081116107d5576040517f08c379a00000000000000000000000000000000000000000000000000000000081526004016107cc906114a2565b60405180910390fd5b600060405180608001604052803373ffffffffffffffffffffffffffffffffffffffff168152602001848152602001838152602001600015158152509050600160009054906101000a900473ffffffffffffffffffffffffffffffffffffffff1673ffffffffffffffffffffffffffffffffffffffff1663095ea7b330856040518363ffffffff1660e01b8152600401610870929190611268565b600060405180830381600087803b15801561088a57600080fd5b505af115801561089e573d6000803e3d6000fd5b50505050806004600085815260200190815260200160002060008201518160000160006101000a81548173ffffffffffffffffffffffffffffffffffffffff021916908373ffffffffffffffffffffffffffffffffffffffff160217905550602082015181600101556040820151816002015560608201518160030160006101000a81548160ff021916908315150217905550905050600381908060018154018082558091505060019003906000526020600020906004020160009091909190915060008201518160000160006101000a81548173ffffffffffffffffffffffffffffffffffffffff021916908373ffffffffffffffffffffffffffffffffffffffff160217905550602082015181600101556040820151816002015560608201518160030160006101000a81548160ff0219169083151502179055505050505050565b6109ea610ccc565b600260009054906101000a900473ffffffffffffffffffffffffffffffffffffffff1673ffffffffffffffffffffffffffffffffffffffff1663a9059cbb610a30610660565b476040518363ffffffff1660e01b8152600401610a4e929190611268565b6020604051808303816000875af1158015610a6d573d6000803e3d6000fd5b505050506040513d601f19601f82011682018060405250810190610a9191906112bd565b610ad0576040517f08c379a0000000000000000000000000000000000000000000000000000000008152600401610ac790611336565b60405180910390fd5b565b60038181548110610ae257600080fd5b90600052602060002090600402016000915090508060000160009054906101000a900473ffffffffffffffffffffffffffffffffffffffff16908060010154908060020154908060030160009054906101000a900460ff16905084565b60606003805480602002602001604051908101604052809291908181526020016000905b82821015610c1a57838290600052602060002090600402016040518060800160405290816000820160009054906101000a900473ffffffffffffffffffffffffffffffffffffffff1673ffffffffffffffffffffffffffffffffffffffff1673ffffffffffffffffffffffffffffffffffffffff16815260200160018201548152602001600282015481526020016003820160009054906101000a900460ff16151515158152505081526020019060010190610b63565b50505050905090565b610c2b610ccc565b600073ffffffffffffffffffffffffffffffffffffffff168173ffffffffffffffffffffffffffffffffffffffff1603610c9a576040517f08c379a0000000000000000000000000000000000000000000000000000000008152600401610c9190611534565b60405180910390fd5b610ca381610d4a565b50565b600260009054906101000a900473ffffffffffffffffffffffffffffffffffffffff1681565b610cd4610e0e565b73ffffffffffffffffffffffffffffffffffffffff16610cf2610660565b73ffffffffffffffffffffffffffffffffffffffff1614610d48576040517f08c379a0000000000000000000000000000000000000000000000000000000008152600401610d3f906115a0565b60405180910390fd5b565b60008060009054906101000a900473ffffffffffffffffffffffffffffffffffffffff169050816000806101000a81548173ffffffffffffffffffffffffffffffffffffffff021916908373ffffffffffffffffffffffffffffffffffffffff1602179055508173ffffffffffffffffffffffffffffffffffffffff168173ffffffffffffffffffffffffffffffffffffffff167f8be0079c531659141344cd1fd0a4f28419497f9722a3daafe3b4186f6b6457e060405160405180910390a35050565b600033905090565b600080fd5b6000819050919050565b610e2e81610e1b565b8114610e3957600080fd5b50565b600081359050610e4b81610e25565b92915050565b600060208284031215610e6757610e66610e16565b5b6000610e7584828501610e3c565b91505092915050565b600073ffffffffffffffffffffffffffffffffffffffff82169050919050565b6000819050919050565b6000610ec3610ebe610eb984610e7e565b610e9e565b610e7e565b9050919050565b6000610ed582610ea8565b9050919050565b6000610ee782610eca565b9050919050565b610ef781610edc565b82525050565b6000602082019050610f126000830184610eee565b92915050565b6000610f2382610e7e565b9050919050565b610f3381610f18565b82525050565b6000602082019050610f4e6000830184610f2a565b92915050565b60008060408385031215610f6b57610f6a610e16565b5b6000610f7985828601610e3c565b9250506020610f8a85828601610e3c565b9150509250929050565b610f9d81610e1b565b82525050565b60008115159050919050565b610fb881610fa3565b82525050565b6000608082019050610fd36000830187610f2a565b610fe06020830186610f94565b610fed6040830185610f94565b610ffa6060830184610faf565b95945050505050565b600081519050919050565b600082825260208201905092915050565b6000819050602082019050919050565b61103881610f18565b82525050565b61104781610e1b565b82525050565b61105681610fa3565b82525050565b608082016000820151611072600085018261102f565b506020820151611085602085018261103e565b506040820151611098604085018261103e565b5060608201516110ab606085018261104d565b50505050565b60006110bd838361105c565b60808301905092915050565b6000602082019050919050565b60006110e182611003565b6110eb818561100e565b93506110f68361101f565b8060005b8381101561112757815161110e88826110b1565b9750611119836110c9565b9250506001810190506110fa565b5085935050505092915050565b6000602082019050818103600083015261114e81846110d6565b905092915050565b61115f81610f18565b811461116a57600080fd5b50565b60008135905061117c81611156565b92915050565b60006020828403121561119857611197610e16565b5b60006111a68482850161116d565b91505092915050565b60006111ba82610eca565b9050919050565b6111ca816111af565b82525050565b60006020820190506111e560008301846111c1565b92915050565b600082825260208201905092915050565b7f4e6f74206c697374656400000000000000000000000000000000000000000000600082015250565b6000611232600a836111eb565b915061123d826111fc565b602082019050919050565b6000602082019050818103600083015261126181611225565b9050919050565b600060408201905061127d6000830185610f2a565b61128a6020830184610f94565b9392505050565b61129a81610fa3565b81146112a557600080fd5b50565b6000815190506112b781611291565b92915050565b6000602082840312156112d3576112d2610e16565b5b60006112e1848285016112a8565b91505092915050565b7f546f6b656e207472616e73666572206661696c65640000000000000000000000600082015250565b60006113206015836111eb565b915061132b826112ea565b602082019050919050565b6000602082019050818103600083015261134f81611313565b9050919050565b600060608201905061136b6000830186610f2a565b6113786020830185610f2a565b6113856040830184610f94565b949350505050565b60006020820190506113a26000830184610f94565b92915050565b6000815190506113b781611156565b92915050565b6000602082840312156113d3576113d2610e16565b5b60006113e1848285016113a8565b91505092915050565b7f596f7520646f6e2774206f776e2074686973204e465400000000000000000000600082015250565b60006114206016836111eb565b915061142b826113ea565b602082019050919050565b6000602082019050818103600083015261144f81611413565b9050919050565b7f5072696365206d7573742062652067726561746572207468616e203000000000600082015250565b600061148c601c836111eb565b915061149782611456565b602082019050919050565b600060208201905081810360008301526114bb8161147f565b9050919050565b7f4f776e61626c653a206e6577206f776e657220697320746865207a65726f206160008201527f6464726573730000000000000000000000000000000000000000000000000000602082015250565b600061151e6026836111eb565b9150611529826114c2565b604082019050919050565b6000602082019050818103600083015261154d81611511565b9050919050565b7f4f776e61626c653a2063616c6c6572206973206e6f7420746865206f776e6572600082015250565b600061158a6020836111eb565b915061159582611554565b602082019050919050565b600060208201905081810360008301526115b98161157d565b905091905056fea2646970667358221220609934c1b0e8754919fcd4f8903e66bf64c4da4aed4e5fe03d0fa2feb864603164736f6c63430008130033",
  "linkReferences": {},
  "deployedLinkReferences": {}
}