{
  "_format": "hh-sol-artifact-1",
  "contractName": "Shop",
  "sourceName": "contracts/Shop.sol",
  "abi": [
    {
      "inputs": [
        {
          "internalType": "address",
          "name": "_pokeToken",
          "type": "address"
        },
        {
          "internalType": "address",
          "name": "_pokeNft",
          "type": "address"
        },
        {
          "internalType": "uint256",
          "name": "_ratio",
          "type": "uint256"
        },
        {
          "internalType": "uint256",
          "name": "_nftPrize",
          "type": "uint256"
        }
      ],
      "stateMutability": "nonpayable",
      "type": "constructor"
    },
    {
      "inputs": [
        {
          "internalType": "uint256",
          "name": "tokenId",
          "type": "uint256"
        }
      ],
      "name": "buyNFTWithToken",
      "outputs": [],
      "stateMutability": "nonpayable",
      "type": "function"
    },
    {
      "inputs": [],
      "name": "buyTokenDigitalWithEther",
      "outputs": [],
      "stateMutability": "payable",
      "type": "function"
    },
    {
      "inputs": [],
      "name": "getNftPrize",
      "outputs": [
        {
          "internalType": "uint256",
          "name": "",
          "type": "uint256"
        }
      ],
      "stateMutability": "view",
      "type": "function"
    },
    {
      "inputs": [],
      "name": "pokeNft",
      "outputs": [
        {
          "internalType": "contract IPokeNFT",
          "name": "",
          "type": "address"
        }
      ],
      "stateMutability": "view",
      "type": "function"
    },
    {
      "inputs": [],
      "name": "pokeToken",
      "outputs": [
        {
          "internalType": "contract IPokeToken",
          "name": "",
          "type": "address"
        }
      ],
      "stateMutability": "view",
      "type": "function"
    }
  ],
  "bytecode": "0x608060405234801561001057600080fd5b5060405161095338038061095383398181016040528101906100329190610163565b836000806101000a81548173ffffffffffffffffffffffffffffffffffffffff021916908373ffffffffffffffffffffffffffffffffffffffff16021790555082600160006101000a81548173ffffffffffffffffffffffffffffffffffffffff021916908373ffffffffffffffffffffffffffffffffffffffff1602179055508160028190555080600381905550505050506101ca565b600080fd5b600073ffffffffffffffffffffffffffffffffffffffff82169050919050565b60006100fa826100cf565b9050919050565b61010a816100ef565b811461011557600080fd5b50565b60008151905061012781610101565b92915050565b6000819050919050565b6101408161012d565b811461014b57600080fd5b50565b60008151905061015d81610137565b92915050565b6000806000806080858703121561017d5761017c6100ca565b5b600061018b87828801610118565b945050602061019c87828801610118565b93505060406101ad8782880161014e565b92505060606101be8782880161014e565b91505092959194509250565b61077a806101d96000396000f3fe60806040526004361061004a5760003560e01c8063421ef1b01461004f5780634268fdf51461007a5780638cdb0c4a146100a5578063baae0728146100d0578063d4c66861146100da575b600080fd5b34801561005b57600080fd5b50610064610103565b604051610071919061042c565b60405180910390f35b34801561008657600080fd5b5061008f610129565b60405161009c9190610468565b60405180910390f35b3480156100b157600080fd5b506100ba61014d565b6040516100c7919061049c565b60405180910390f35b6100d8610157565b005b3480156100e657600080fd5b5061010160048036038101906100fc91906104e8565b61023c565b005b600160009054906101000a900473ffffffffffffffffffffffffffffffffffffffff1681565b60008054906101000a900473ffffffffffffffffffffffffffffffffffffffff1681565b6000600354905090565b6000341161019a576040517f08c379a000000000000000000000000000000000000000000000000000000000815260040161019190610598565b60405180910390fd5b6000600254346101aa91906105e7565b905060008054906101000a900473ffffffffffffffffffffffffffffffffffffffff1673ffffffffffffffffffffffffffffffffffffffff166340c10f1933836040518363ffffffff1660e01b815260040161020792919061064a565b600060405180830381600087803b15801561022157600080fd5b505af1158015610235573d6000803e3d6000fd5b5050505050565b60008054906101000a900473ffffffffffffffffffffffffffffffffffffffff1673ffffffffffffffffffffffffffffffffffffffff1663a9059cbb306003546040518363ffffffff1660e01b815260040161029992919061064a565b6020604051808303816000875af11580156102b8573d6000803e3d6000fd5b505050506040513d601f19601f820116820180604052508101906102dc91906106ab565b61031b576040517f08c379a000000000000000000000000000000000000000000000000000000000815260040161031290610724565b60405180910390fd5b600160009054906101000a900473ffffffffffffffffffffffffffffffffffffffff1673ffffffffffffffffffffffffffffffffffffffff1663a144819433836040518363ffffffff1660e01b815260040161037892919061064a565b600060405180830381600087803b15801561039257600080fd5b505af11580156103a6573d6000803e3d6000fd5b5050505050565b600073ffffffffffffffffffffffffffffffffffffffff82169050919050565b6000819050919050565b60006103f26103ed6103e8846103ad565b6103cd565b6103ad565b9050919050565b6000610404826103d7565b9050919050565b6000610416826103f9565b9050919050565b6104268161040b565b82525050565b6000602082019050610441600083018461041d565b92915050565b6000610452826103f9565b9050919050565b61046281610447565b82525050565b600060208201905061047d6000830184610459565b92915050565b6000819050919050565b61049681610483565b82525050565b60006020820190506104b1600083018461048d565b92915050565b600080fd5b6104c581610483565b81146104d057600080fd5b50565b6000813590506104e2816104bc565b92915050565b6000602082840312156104fe576104fd6104b7565b5b600061050c848285016104d3565b91505092915050565b600082825260208201905092915050565b7f457468657220616d6f756e74206d75737420626520677265617465722074686160008201527f6e20300000000000000000000000000000000000000000000000000000000000602082015250565b6000610582602383610515565b915061058d82610526565b604082019050919050565b600060208201905081810360008301526105b181610575565b9050919050565b7f4e487b7100000000000000000000000000000000000000000000000000000000600052601160045260246000fd5b60006105f282610483565b91506105fd83610483565b925082820261060b81610483565b91508282048414831517610622576106216105b8565b5b5092915050565b6000610634826103ad565b9050919050565b61064481610629565b82525050565b600060408201905061065f600083018561063b565b61066c602083018461048d565b9392505050565b60008115159050919050565b61068881610673565b811461069357600080fd5b50565b6000815190506106a58161067f565b92915050565b6000602082840312156106c1576106c06104b7565b5b60006106cf84828501610696565b91505092915050565b7f4e6f7420656e6f75676820746f6b656e73000000000000000000000000000000600082015250565b600061070e601183610515565b9150610719826106d8565b602082019050919050565b6000602082019050818103600083015261073d81610701565b905091905056fea264697066735822122054459e93b556755596b824de0509b46ab5b55ef7ea81513015bab362cb3fe3d264736f6c63430008130033",
  "linkReferences": {},
  "deployedLinkReferences": {}
}